:1000000026C1000052C1000050C100004EC10000D6
:100010004CC100004AC1000048C1000046C10000B8
:1000200044C1000042C1000040C100003EC10000C8
:100030003CC100003AC1000038C1000036C10000D8
:1000400034C1000032C1000030C100002EC10000E8
:100050002CC100002AC1000028C1000028C50000F2
:1000600024C10000EEC40000C3C400001EC1000093
:100070001CC100001AC1000018C1000016C1000018
:1000800014C1000012C1000010C100000EC1000028
:100090000CC100000AC1000008C1000006C1000038
:1000A00004C1000002C1000000C10000FEC0000049
:1000B000FCC00000FAC00000F8C00000F6C000005C
:1000C000F4C00000F2C00000F0C00000EEC000006C
:1000D000ECC00000EAC00000E8C00000E6C000007C
:1000E000E4C00000AB02AE029D02A102A702E5023D
:1000F000B202B602BC02C002C402CA02CE02D202DE
:10010000E502D802DC02E00276037B0380038A0367
:1001100094030D049E03A603AE03B803C203CC03ED
:10012000DB03E5030D04EF03F903030400002100E2
:10013000240027002A002D003000330001010000B8
:10014000040107010A0100002200250028002B00FD
:100150002E003100340002010000050108010B01EE
:1001600000000A0B02090C0D0E0807030401000031
:10017000000000000000000000000000000000007F
:10018000000000000000000000000000121110003C
:10019000000000000000000000000000000000005F
:1001A00000000000000000002000230026002900BD
:1001B0002C002F003200000100000301060109019C
:1001C00005050505070508080808020202020A0AD3
:1001D00008080404040401010101010101010303F1
:1001E000030303030303040707070C0C0C0C0C0C9C
:1001F0000C0C0202020206060606060606060B0B99
:100200000B0B0B0B0B0B01021020200808102040D9
:1002100010204080020102010804020101020408CA
:100220001020408080402010080402018004020158
:1002300080402010080402010804020101020408A1
:10024000102040800102040810204080E60511249F
:100250001FBECFEFD1E2DEBFCDBF00E00CBF12E08A
:10026000A0E0B2E0EEE2F1E100E00BBF02C00790D7
:100270000D92A832B107D9F722E0A8E2B2E001C09E
:100280001D92AE3EB207E1F711E0C7E2D1E000E017
:1002900005C021970109802FFE013BD7C632D10747
:1002A00080E00807B1F7FDD440C7AACECF92DF9215
:1002B000EF92FF920F931F93CF93DF936C017A011C
:1002C0008B01C0E0D0E0CE15DF0581F0D8016D9143
:1002D0008D01D601ED91FC910190F081E02DC601D8
:1002E0001995892B11F02196EECF7E01C701DF9180
:1002F000CF911F910F91FF90EF90DF90CF900895D5
:10030000089580E090E00895FC01538D448D252FE1
:1003100030E0842F90E0821B930B541710F0CF969F
:10032000089501970895FC01918D828D981761F0D1
:10033000828DDF01A80FB11D5D968C91928D9F5F1C
:100340009F73928F90E008958FEF9FEF0895FC01C7
:10035000918D828D981731F0828DE80FF11D858D7A
:1003600090E008958FEF9FEF0895FC01918D228D0D
:10037000892F90E0805C9F4F821B91098F73992792
:10038000089581E392E0F1DF21E0892B09F420E078
:10039000822F0895FC01848DDF01A80FB11DA35A9F
:1003A000BF4F2C91848D90E001968F739927848F95
:1003B000A689B7892C93A089B1898C9183708064B8
:1003C0008C93938D848D981306C00288F389E02D59
:1003D00080818F7D80830895EF92FF920F931F930A
:1003E000CF93DF93EC0181E0888F9B8D8C8D9813E8
:1003F00005C0E889F989808185FD25C0F62E0B8D21
:1004000010E00F5F1F4F0F731127E02E8C8DE81245
:100410000BC00FB607FCFACFE889F989808185FF08
:10042000F5CFCE01B7DFF2CF8B8DFE01E80FF11DC6
:10043000E35AFF4FF0829FB7F8940B8FEA89FB894C
:10044000808180620AC09FB7F894EE89FF8960833B
:10045000E889F98980818370806480839FBF81E00F
:1004600090E0DF91CF911F910F91FF90EF90089551
:10047000CF93DF93EC01888D8823C1F0EA89FB8953
:10048000808185FD05C0A889B9898C9186FD0EC043
:100490000FB607FCF5CF808185FFF2CFA889B98917
:1004A0008C9185FFEDCFCE0175DFE8CFDF91CF9145
:1004B000089580E090E0892B19F063DF811125C059
:1004C00080E090E0892B41F080E090E0892B21F0E2
:1004D0000E94000081111CC080E090E0892B41F057
:1004E00080E090E0892B21F00E940000811113C070
:1004F00080E090E0892BA1F080E090E0892B81F0F2
:100500000E94000081110AC008950E940000D8CF07
:100510000E940000E1CF0E940000EACF0C9400008E
:10052000089590E0FC013197E231F10508F04DC0EB
:100530008827EE58FF4F8F4FECC5809180008F7752
:1005400003C0809180008F7D80938000089580910A
:100550008000877FF9CF84B58F7702C084B58F7D07
:1005600084BD08958091B0008F7703C08091B00062
:100570008F7D8093B0000895809190008F7707C0A1
:10058000809190008F7D03C080919000877F809341
:10059000900008958091A0008F7707C08091A000FF
:1005A0008F7D03C08091A000877F8093A000089575
:1005B000809120018F7707C0809120018F7D03C03B
:1005C00080912001877F8093200108951F93CF930E
:1005D000DF93282F30E0F901E05AFE4F8491F901B2
:1005E000EA5FFD4FD491F901E054FE4FC491CC2352
:1005F000B9F0162F811195DFEC2FF0E0EE0FFF1F01
:10060000EA5BFE4FA591B4919FB7F894111104C015
:100610008C91D095D82302C0EC91DE2BDC939FBF48
:10062000DF91CF911F910895CF93DF9390E0FC016C
:10063000EA5FFD4F2491FC01E054FE4F8491882332
:1006400061F190E0880F991FFC01E45DFE4FC591B8
:10065000D491FC01EA5BFE4FA591B491611109C0F0
:100660009FB7F8948881209582238883EC912E236C
:100670000BC0623061F49FB7F8948881322F3095B7
:1006800083238883EC912E2B2C939FBF06C08FB7BA
:10069000F894E8812E2B28838FBFDF91CF910895A6
:1006A0001F93CF93DF93182FEB0161E0BDDF2097FD
:1006B00011F460E004C0CF3FD10531F461E0812F37
:1006C000DF91CF911F9182CFE12FF0E0E05AFE4FF2
:1006D000E4918E2F90E0FC013197E231F10508F0B2
:1006E0009CC08827EC57FF4F8F4F13C584B5806897
:1006F00084BDC7BD97C084B5806284BDC8BD92C0AB
:1007000080918000806880938000D0938900C0939E
:10071000880088C080918000806280938000D093A0
:100720008B00C0938A007EC0809180008860809397
:100730008000D0938D00C0938C0074C08091B00075
:1007400080688093B000C093B3006CC08091B0000B
:1007500080628093B000C093B40064C08091900028
:10076000806880939000D0939900C09398005AC0FD
:1007700080919000806280939000D0939B00C09302
:100780009A0050C080919000886080939000D09330
:100790009D00C0939C0046C08091A000806880931B
:1007A000A0008091A0008F7B8093A000D093A9002F
:1007B000C093A80037C08091A00080628093A00001
:1007C000D093AB00C093AA002DC08091A000886098
:1007D0008093A000D093AD00C093AC0023C0809163
:1007E0002001806880932001D0932901C0932801C3
:1007F00019C080912001806280932001D0932B0149
:10080000C0932A010FC0809120018860809320014D
:10081000D0932D01C0932C0105C0C038D1050CF038
:100820004DCF47CFDF91CF911F9108953FB7F894F7
:1008300080912D0290912E02A0912F02B091300252
:1008400026B5A89B05C02F3F19F00196A11DB11D2B
:100850003FBFBA2FA92F982F8827820F911DA11D66
:10086000B11DBC01CD0142E0660F771F881F991FA3
:100870004A95D1F708958F929F92AF92BF92CF92EF
:10088000DF92EF92FF926B017C01D0DF4B015C01A4
:10089000C114D104E104F104E9F0C8DFDC01CB01AB
:1008A00088199909AA09BB09883E9340A105B10599
:1008B00078F321E0C21AD108E108F10888EE880E29
:1008C00083E0981EA11CB11CC114D104E104F10401
:1008D00021F7DECFFF90EF90DF90CF90BF90AF90E9
:1008E0009F908F9008950F931F93CF93DF93EC0108
:1008F0008B011616170644F461E0888167DE60E01C
:100900008A8164DEB8010CC0672B81F060E08881C9
:100910005DDE61E08A815ADE66277727601B710BF6
:100920008C81DF91CF911F910F91BACEDF91CF9142
:100930001F910F910895CF93DF93EC018EED92E01C
:10094000D2DFBE0186EE92E0DF91CF91CCCF00974F
:1009500061F0FC0101900020E9F73197AF01481BDD
:10096000590BBC0181E392E0A1CC80E090E00895B6
:100970008F929F92AF92BF920F931F93CF93DF936B
:10098000CDB7DEB7A1970FB6F894DEBF0FBECDBFCF
:1009900019A2423008F44AE08E010F5D1F4F842EE9
:1009A000912CA12CB12CA501940175D3E62FB9018E
:1009B000CA0101501109EA3014F4E05D01C0E95C9C
:1009C000D801EC93232B242B252B69F7C801BFDF1B
:1009D000A1960FB6F894DEBF0FBECDBFDF91CF91C9
:1009E0001F910F91BF90AF909F908F90089599D3D2
:1009F0001F920F920FB60F9211240BB60F922F93E6
:100A00003F934F935F936F937F938F939F93AF9396
:100A1000BF93EF93FF9381E392E0BCDCFF91EF91F2
:100A2000BF91AF919F918F917F916F915F914F9106
:100A30003F912F910F900BBE0F900FBE0F901F9004
:100A400018951F920F920FB60F9211240BB60F92AA
:100A50002F938F939F93EF93FF93E0914102F09137
:100A600042028081E0914702F091480282FD12C06B
:100A7000908180914A028F5F8F7320914B02821781
:100A800051F0E0914A02F0E0EF5CFD4F958F8093CA
:100A90004A0201C08081FF91EF919F918F912F9128
:100AA0000F900BBE0F900FBE0F901F9018951F92C6
:100AB0000F920FB60F9211242F933F938F939F9312
:100AC000AF93BF938091290290912A02A0912B02AB
:100AD000B0912C023091280223E0230F2D3720F40F
:100AE0000196A11DB11D05C026E8230F0296A11D88
:100AF000B11D209328028093290290932A02A0938B
:100B00002B02B0932C0280912D0290912E02A09185
:100B10002F02B09130020196A11DB11D80932D02CC
:100B200090932E02A0932F02B0933002BF91AF9109
:100B30009F918F913F912F910F900FBE0F901F901B
:100B40001895CF92DF92EF92FF920F931F93E82FA9
:100B5000F92F05C0015011092109310961F1908176
:100B600096239417B9F305C00150110921093109E1
:100B700011F1908196239413F7CFC12CD12CE12C45
:100B8000F12C0AC08FEFC81AD80AE80AF80A0C1527
:100B90001D052E053F0579F080818623841791F38A
:100BA0006C2D7D2D8E2D9F2D1F910F91FF90EF901D
:100BB000DF90CF90089560E070E080E090E01F91BA
:100BC0000F91FF90EF90DF90CF900895E1E3F2E076
:100BD0001382128288EE93E0A0E0B0E084839583D4
:100BE000A683B78384E092E09183808385EC90E0D4
:100BF0009587848784EC90E09787868780EC90E0E7
:100C0000918B808B81EC90E0938B828B82EC90E0D7
:100C1000958B848B86EC90E0978B868B118E128E51
:100C2000138E148E61E086E0FFDC61E087E0FCDC7F
:100C300061E089E0F9DCE6EEF2E086E090E09183A5
:100C4000808387E090E09383828389E090E09583BE
:100C5000848361E085E0E8DC61E084E0E5DC61E07C
:100C600083E0E2DCEEEDF2E085E090E091838083CA
:100C700084E090E09383828383E090E09583848393
:100C800061E088E0D1DC60E08AE0CEDCEEECF2E00E
:100C900088E090E0918380838AE090E09383828370
:100CA0000895789484B5826084BD84B5816084BDE4
:100CB00085B5826085BD85B5816085BD80916E00FA
:100CC000816080936E00109281008091810082602B
:100CD0008093810080918100816080938100809168
:100CE00080008160809380008091B1008460809357
:100CF000B1008091B00081608093B000809191003C
:100D00008260809391008091910081608093910036
:100D1000809190008160809390008091A10082601A
:100D20008093A1008091A10081608093A1008091B7
:100D3000A00081608093A000809121018260809357
:100D40002101809121018160809321018091200106
:100D500081608093200180917A00846080937A0082
:100D600080917A00826080937A0080917A0081601D
:100D700080937A0080917A00806880937A00109244
:100D8000C100E0914102F091420282E08083E09153
:100D90003D02F0913E021082E0913F02F09140024C
:100DA0008FEC808310924902E0914502F091460257
:100DB00086E08083E0914302F0914402808180616B
:100DC0008083E0914302F0914402808188608083B7
:100DD000E0914302F0914402808180688083E09139
:100DE0004302F091440280818F7D808360E08AE03D
:100DF0001BDC61E088E018DC60E082E015DC61E08B
:100E000083E312DC61E085E30FDC61E081E30CDC6D
:100E100061E083E3DBDB60E085E3D8DB23E2222EC5
:100E2000312C34E9432E512C612C712C6FE570E08C
:100E30008FEF90E080DDE2E6F1E08491E8E0F2E01F
:100E4000C491E2ECF1E0D491DD2399F0811169DBEA
:100E5000ED2FF0E0EE0FFF1FEA55FE4FA591B49184
:100E60008C91C82391E080E009F490E0692F782FFD
:100E700002C060E070E0072E000C880B990B4AE07E
:100E800077DD82E192E063DD60E088E09FDB83E074
:100E900090E00197F1F761E088E098DBC1010197EC
:100EA000F1F760E088E092DB60E08091CE028EDBBB
:100EB00083E090E00197F1F761E08091CE0286DB5C
:100EC000C1010197F1F760E08091CE027FDB809154
:100ED000D0029091D1029927FC01EA5FFD4F649105
:100EE000FC01E054FE4FE491F0E0EE0FFF1FEA55E5
:100EF000FE4F8591949100E412E42FE030E0462FFC
:100F000020DE611571058105910551F0DC01CB01F1
:100F10000196A11DB11D4C015D01FFE0BF2203C080
:100F2000812C912C54018092D2029092D302A092F3
:100F3000D402B092D502C501B4012AE330E040E00A
:100F400050E0CBD069017A012093D6023093D702CA
:100F50004093D8025093D902C501B401A301920174
:100F6000BCD02093DA023093DB024093DC02509332
:100F7000DD02E60185E192E0EADC0D2C000CEE08D2
:100F8000FF08F7FE0DC06DE281E392E025DA6627E7
:100F90007727CB016C197D098E099F094AE003C0B0
:100FA0004AE0C701B601E4DC82E192E0D0DC64E60D
:100FB00070E080E090E05FDC6F9734F06FEF70E0FE
:100FC0008FE590E0B8DC65C060E08091DE02FEDA7B
:100FD00060E08091E002FADA60E08091E602F6DA01
:100FE00060E08091E802F2DA62E370E080E090E095
:100FF00042DC68EE73E080E090E03DDC6FE570E09D
:101000008EED92E070DC61E07FEF86EE92E06BDCCB
:101010006AEF70E080E090E02EDC6FE570E08FEF2B
:1010200090E089DC68EE73E080E090E024DC61EA27
:101030007FEF8EED92E057DC6FEF70E086EE92E08E
:1010400052DC6AEF70E080E090E015DC6FE570E064
:101050008FEF90E070DC60ED77E080E090E00BDCFB
:1010600061EA7FEF8EED92E03EDC6FEF70E086EE9E
:1010700092E039DC6AEF70E080E090E0FCDB6FE545
:1010800070E08FEF90E057DC68EE73E080E090E076
:10109000F2DB0FDACBCEA1E21A2EAA1BBB1BFD019D
:1010A0000DC0AA1FBB1FEE1FFF1FA217B307E40747
:1010B000F50720F0A21BB30BE40BF50B661F771F9F
:1010C000881F991F1A9469F760957095809590957F
:1010D0009B01AC01BD01CF010895052E97FB16F4CD
:1010E00000940FD057FD05D0D6DF07FC02D046F4A0
:1010F00008C050954095309521953F4F4F4F5F4F19
:10110000089590958095709561957F4F8F4F9F4F73
:101110000895EE0FFF1F881F8BBF0790F691E02DFB
:0E112000199481E090E0F89400C0F894FFCF9D
:10112E0000000000EC01560184013802B501930164
:10113E00A7010D0A0044697374616E6369612065CD
:08114E006D20434D3A20000022
:00000001FF
