:1000000026C1000052C1000050C100004EC10000D6
:100010004CC100004AC1000048C1000046C10000B8
:1000200044C1000042C1000040C100003EC10000C8
:100030003CC100003AC1000038C1000036C10000D8
:1000400034C1000032C1000030C100002EC10000E8
:100050002CC100002AC1000028C100006FC40000AC
:1000600024C1000035C400000AC400001EC1000005
:100070001CC100001AC1000018C1000016C1000018
:1000800014C1000012C1000010C100000EC1000028
:100090000CC100000AC1000008C1000006C1000038
:1000A00004C1000002C1000000C10000FEC0000049
:1000B000FCC00000FAC00000F8C00000F6C000005C
:1000C000F4C00000F2C00000F0C00000EEC000006C
:1000D000ECC00000EAC00000E8C00000E6C000007C
:1000E000E4C00000AB02AE029D02A102A702E5023D
:1000F000B202B602BC02C002C402CA02CE02D202DE
:10010000E502D802DC02E00276037B0380038A0367
:1001100094030D049E03A603AE03B803C203CC03ED
:10012000DB03E5030D04EF03F903030400002100E2
:10013000240027002A002D003000330001010000B8
:10014000040107010A0100002200250028002B00FD
:100150002E003100340002010000050108010B01EE
:10016000000020002300260029002C002F00320070
:100170000001000003010601090105050505070549
:1001800008080808020202020A0A08080404040413
:10019000010101010101010103030303030303033F
:1001A000040707070C0C0C0C0C0C0C0C02020202CE
:1001B00006060606060606060B0B0B0B0B0B0B0BB7
:1001C0000102102020080810204010204080020169
:1001D000020108040201010204081020408080404E
:1001E000201008040201800402018040201008044D
:1001F00002010804020101020408102040800102EB
:1002000004081020408000000A0B02090C0D0E08A3
:1002100007030401000000000000000000000000CF
:1002200000000000000000000000000000000000CE
:10023000000012111000000000000000000000008B
:10024000000000000000000000000000E80411248D
:100250001FBECFEFD1E2DEBFCDBF00E00CBF12E08A
:10026000A0E0B2E0E0E8FCE000E00BBF02C00790D5
:100270000D92A231B107D9F722E0A2E1B2E001C0AC
:100280001D92A83DB207E1F711E0C7E2D1E000E01E
:1002900005C021970109802FFE01E4D4C632D107A1
:1002A00080E00807B1F7FFD3E9C4AACECF92DF926E
:1002B000EF92FF920F931F93CF93DF936C017A011C
:1002C0008B01C0E0D0E0CE15DF0581F0D8016D9143
:1002D0008D01D601ED91FC910190F081E02DC601D8
:1002E0001995892B11F02196EECF7E01C701DF9180
:1002F000CF911F910F91FF90EF90DF90CF900895D5
:10030000089580E090E00895FC01538D448D252FE1
:1003100030E0842F90E0821B930B541710F0CF969F
:10032000089501970895FC01918D828D981761F0D1
:10033000828DDF01A80FB11D5D968C91928D9F5F1C
:100340009F73928F90E008958FEF9FEF0895FC01C7
:10035000918D828D981731F0828DE80FF11D858D7A
:1003600090E008958FEF9FEF0895FC01918D228D0D
:10037000892F90E0805C9F4F821B91098F73992792
:1003800008958BE192E0F1DF21E0892B09F420E070
:10039000822F0895FC01848DDF01A80FB11DA35A9F
:1003A000BF4F2C91848D90E001968F739927848F95
:1003B000A689B7892C93A089B1898C9183708064B8
:1003C0008C93938D848D981306C00288F389E02D59
:1003D00080818F7D80830895EF92FF920F931F930A
:1003E000CF93DF93EC0181E0888F9B8D8C8D9813E8
:1003F00005C0E889F989808185FD25C0F62E0B8D21
:1004000010E00F5F1F4F0F731127E02E8C8DE81245
:100410000BC00FB607FCFACFE889F989808185FF08
:10042000F5CFCE01B7DFF2CF8B8DFE01E80FF11DC6
:10043000E35AFF4FF0829FB7F8940B8FEA89FB894C
:10044000808180620AC09FB7F894EE89FF8960833B
:10045000E889F98980818370806480839FBF81E00F
:1004600090E0DF91CF911F910F91FF90EF90089551
:10047000CF93DF93EC01888D8823C1F0EA89FB8953
:10048000808185FD05C0A889B9898C9186FD0EC043
:100490000FB607FCF5CF808185FFF2CFA889B98917
:1004A0008C9185FFEDCFCE0175DFE8CFDF91CF9145
:1004B000089580E090E0892B19F063DF811125C059
:1004C00080E090E0892B41F080E090E0892B21F0E2
:1004D0000E94000081111CC080E090E0892B41F057
:1004E00080E090E0892B21F00E940000811113C070
:1004F00080E090E0892BA1F080E090E0892B81F0F2
:100500000E94000081110AC008950E940000D8CF07
:100510000E940000E1CF0E940000EACF0C9400008E
:10052000089590E0FC013197E231F10508F04DC0EB
:100530008827EE58FF4F8F4F95C3809180008F77AB
:1005400003C0809180008F7D80938000089580910A
:100550008000877FF9CF84B58F7702C084B58F7D07
:1005600084BD08958091B0008F7703C08091B00062
:100570008F7D8093B0000895809190008F7707C0A1
:10058000809190008F7D03C080919000877F809341
:10059000900008958091A0008F7707C08091A000FF
:1005A0008F7D03C08091A000877F8093A000089575
:1005B000809120018F7707C0809120018F7D03C03B
:1005C00080912001877F8093200108951F93CF930E
:1005D000DF93282F30E0F901EA5FFD4F8491F901A4
:1005E000E054FE4FD491F901E658FE4FC491CC235C
:1005F000B9F0162F811195DFEC2FF0E0EE0FFF1F01
:10060000EA5BFE4FA591B4919FB7F894111104C015
:100610008C91D095D82302C0EC91DE2BDC939FBF48
:10062000DF91CF911F910895CF93DF9390E0FC016C
:10063000E054FE4F2491FC01E658FE4F849188233C
:1006400061F190E0880F991FFC01E45DFE4FC591B8
:10065000D491FC01EA5BFE4FA591B491611109C0F0
:100660009FB7F8948881209582238883EC912E236C
:100670000BC0623061F49FB7F8948881322F3095B7
:1006800083238883EC912E2B2C939FBF06C08FB7BA
:10069000F894E8812E2B28838FBFDF91CF910895A6
:1006A0001F93CF93DF93182FEB0161E0BDDF2097FD
:1006B00011F460E004C0CF3FD10531F461E0812F37
:1006C000DF91CF911F9182CFE12FF0E0EA5FFD4FE4
:1006D000E4918E2F90E0FC013197E231F10508F0B2
:1006E0009CC08827EC57FF4F8F4FBCC284B58068F1
:1006F00084BDC7BD97C084B5806284BDC8BD92C0AB
:1007000080918000806880938000D0938900C0939E
:10071000880088C080918000806280938000D093A0
:100720008B00C0938A007EC0809180008860809397
:100730008000D0938D00C0938C0074C08091B00075
:1007400080688093B000C093B3006CC08091B0000B
:1007500080628093B000C093B40064C08091900028
:10076000806880939000D0939900C09398005AC0FD
:1007700080919000806280939000D0939B00C09302
:100780009A0050C080919000886080939000D09330
:100790009D00C0939C0046C08091A000806880931B
:1007A000A0008091A0008F7B8093A000D093A9002F
:1007B000C093A80037C08091A00080628093A00001
:1007C000D093AB00C093AA002DC08091A000886098
:1007D0008093A000D093AD00C093AC0023C0809163
:1007E0002001806880932001D0932901C0932801C3
:1007F00019C080912001806280932001D0932B0149
:10080000C0932A010FC0809120018860809320014D
:10081000D0932D01C0932C0105C0C038D1050CF038
:100820004DCF47CFDF91CF911F9108950F931F9325
:10083000CF93DF93EC018B011616170644F461E0A9
:100840008881C4DE60E08A81C1DEB8010CC0672BFC
:1008500081F060E08881BADE61E08A81B7DE6627D8
:100860007727601B710B8C81DF91CF911F910F91C6
:1008700017CFDF91CF911F910F910895FBD11F9258
:100880000F920FB60F9211240BB60F922F933F9336
:100890004F935F936F937F938F939F93AF93BF9388
:1008A000EF93FF938BE192E075DDFF91EF91BF91A4
:1008B000AF919F918F917F916F915F914F913F91F8
:1008C0002F910F900BBE0F900FBE0F901F90189599
:1008D0001F920F920FB60F9211240BB60F922F9307
:1008E0008F939F93EF93FF93E0912B02F0912C0253
:1008F0008081E0913102F091320282FD12C090813C
:10090000809134028F5F8F7320913502821751F0EE
:10091000E0913402F0E0E55EFD4F958F8093340264
:1009200001C08081FF91EF919F918F912F910F9046
:100930000BBE0F900FBE0F901F9018951F920F9235
:100940000FB60F9211242F933F938F939F93AF93E2
:10095000BF938091170290911802A0911902B09153
:100960001A023091160223E0230F2D3720F401964E
:10097000A11DB11D05C026E8230F0296A11DB11DC2
:10098000209316028093170290931802A0931902E5
:10099000B0931A028091120290911302A091140256
:1009A000B09115020196A11DB11D80931202909382
:1009B0001302A0931402B0931502BF91AF919F91BF
:1009C0008F913F912F910F900FBE0F901F90189510
:1009D000EBE1F2E01382128288EE93E0A0E0B0E057
:1009E00084839583A683B78384E092E09183808398
:1009F00085EC90E09587848784EC90E097878687E4
:100A000080EC90E0918B808B81EC90E0938B828BDB
:100A100082EC90E0958B848B86EC90E0978B868BB4
:100A2000118E128E138E148E61E086E0FDDD61E082
:100A300087E0FADD61E089E0F7DDE0EDF2E086E0F5
:100A400090E09183808387E090E09383828389E0C4
:100A500090E09583848361E085E0E6DD61E084E0F9
:100A6000E3DD61E083E0E0DDE8ECF2E085E090E0EA
:100A70009183808384E090E09383828383E090E09D
:100A80009583848361E088E0CFDD60E08AE0CCDD9F
:100A9000E8EBF2E088E090E0918380838AE090E0E8
:100AA000938382830895789484B5826084BD84B5ED
:100AB000816084BD85B5826085BD85B5816085BD59
:100AC00080916E00816080936E0010928100809111
:100AD0008100826080938100809181008160809399
:100AE0008100809180008160809380008091B100BE
:100AF00084608093B1008091B00081608093B000E9
:100B0000809191008260809391008091910081603A
:100B100080939100809190008160809390008091FB
:100B2000A10082608093A1008091A10081608093E8
:100B3000A1008091A00081608093A000809121019C
:100B40008260809321018091210181608093210145
:100B50008091200181608093200180917A008460DF
:100B600080937A0080917A00826080937A008091ED
:100B70007A00816080937A0080917A008068809307
:100B80007A001092C100E0912B02F0912C0282E0D9
:100B90008083E0912702F09128021082E0912902DF
:100BA000F0912A028FEC808310923302E0912F02A1
:100BB000F091300286E08083E0912D02F0912E02C8
:100BC000808180618083E0912D02F0912E028081EE
:100BD00088608083E0912D02F0912E0280818068F0
:100BE0008083E0912D02F0912E0280818F7D8083A1
:100BF00060E08AE019DD61E088E016DD60E082E017
:100C000013DDC8E0D2E002EC11E09CE7E92E91E0B0
:100C1000F92EFE018491F801C490F701D490DD20F3
:100C2000A9F081117EDCED2DF0E0EE0FFF1FE05A00
:100C3000FE4FA591B4918C918C2141F062E370E05C
:100C400088EC92E0F3DD62E370E007C06EE170E0F3
:100C500088EC92E0EBDD6AE570E080ED92E0E6DDA5
:100C600028DCD7CFEE0FFF1F881F8BBF0790F691B0
:100C7000E02D199481E090E0F89400C0F894FFCF43
:100C800000000000EC01560184013802B501930117
:020C9000A701BA
:00000001FF
